{
  "contractName": "RelayerEIP712",
  "abi": [
    {
      "inputs": [
        {
          "internalType": "address[]",
          "name": "tokens",
          "type": "address[]"
        }
      ],
      "stateMutability": "nonpayable",
      "type": "constructor"
    },
    {
      "anonymous": false,
      "inputs": [
        {
          "indexed": false,
          "internalType": "uint256",
          "name": "nonce",
          "type": "uint256"
        },
        {
          "indexed": false,
          "internalType": "address",
          "name": "signer",
          "type": "address"
        }
      ],
      "name": "Executed",
      "type": "event"
    },
    {
      "anonymous": false,
      "inputs": [
        {
          "indexed": true,
          "internalType": "address",
          "name": "previousOwner",
          "type": "address"
        },
        {
          "indexed": true,
          "internalType": "address",
          "name": "newOwner",
          "type": "address"
        }
      ],
      "name": "OwnershipTransferred",
      "type": "event"
    },
    {
      "inputs": [],
      "name": "DOMAIN_TYPEHASH",
      "outputs": [
        {
          "internalType": "bytes32",
          "name": "",
          "type": "bytes32"
        }
      ],
      "stateMutability": "view",
      "type": "function"
    },
    {
      "inputs": [],
      "name": "TRANSFER_FROM_TYPEHASH",
      "outputs": [
        {
          "internalType": "bytes32",
          "name": "",
          "type": "bytes32"
        }
      ],
      "stateMutability": "view",
      "type": "function"
    },
    {
      "inputs": [],
      "name": "name",
      "outputs": [
        {
          "internalType": "string",
          "name": "",
          "type": "string"
        }
      ],
      "stateMutability": "view",
      "type": "function"
    },
    {
      "inputs": [
        {
          "internalType": "address",
          "name": "",
          "type": "address"
        }
      ],
      "name": "nonces",
      "outputs": [
        {
          "internalType": "uint256",
          "name": "",
          "type": "uint256"
        }
      ],
      "stateMutability": "view",
      "type": "function"
    },
    {
      "inputs": [],
      "name": "owner",
      "outputs": [
        {
          "internalType": "address",
          "name": "",
          "type": "address"
        }
      ],
      "stateMutability": "view",
      "type": "function"
    },
    {
      "inputs": [],
      "name": "renounceOwnership",
      "outputs": [],
      "stateMutability": "nonpayable",
      "type": "function"
    },
    {
      "inputs": [
        {
          "internalType": "address",
          "name": "newOwner",
          "type": "address"
        }
      ],
      "name": "transferOwnership",
      "outputs": [],
      "stateMutability": "nonpayable",
      "type": "function"
    },
    {
      "inputs": [
        {
          "internalType": "address",
          "name": "",
          "type": "address"
        }
      ],
      "name": "whitelisted",
      "outputs": [
        {
          "internalType": "bool",
          "name": "",
          "type": "bool"
        }
      ],
      "stateMutability": "view",
      "type": "function"
    },
    {
      "inputs": [
        {
          "internalType": "address",
          "name": "receiver",
          "type": "address"
        },
        {
          "internalType": "address",
          "name": "erc20",
          "type": "address"
        },
        {
          "internalType": "uint256",
          "name": "amount",
          "type": "uint256"
        },
        {
          "internalType": "uint256",
          "name": "fee",
          "type": "uint256"
        },
        {
          "internalType": "uint256",
          "name": "nonce",
          "type": "uint256"
        },
        {
          "internalType": "bytes32",
          "name": "r",
          "type": "bytes32"
        },
        {
          "internalType": "bytes32",
          "name": "s",
          "type": "bytes32"
        },
        {
          "internalType": "uint8",
          "name": "v",
          "type": "uint8"
        }
      ],
      "name": "transferFromBySig",
      "outputs": [],
      "stateMutability": "nonpayable",
      "type": "function"
    },
    {
      "inputs": [
        {
          "internalType": "address",
          "name": "erc20",
          "type": "address"
        }
      ],
      "name": "list",
      "outputs": [],
      "stateMutability": "nonpayable",
      "type": "function"
    },
    {
      "inputs": [
        {
          "internalType": "address",
          "name": "erc20",
          "type": "address"
        }
      ],
      "name": "unlist",
      "outputs": [],
      "stateMutability": "nonpayable",
      "type": "function"
    }
  ],
  "bytecode": "0x60806040523480156200001157600080fd5b5060405162001dda38038062001dda83398181016040528101906200003791906200026c565b600062000049620001ab60201b60201c565b9050806000806101000a81548173ffffffffffffffffffffffffffffffffffffffff021916908373ffffffffffffffffffffffffffffffffffffffff1602179055508073ffffffffffffffffffffffffffffffffffffffff16600073ffffffffffffffffffffffffffffffffffffffff167f8be0079c531659141344cd1fd0a4f28419497f9722a3daafe3b4186f6b6457e060405160405180910390a35060005b8151811015620001a35760016002600084848151811062000134577f4e487b7100000000000000000000000000000000000000000000000000000000600052603260045260246000fd5b602002602001015173ffffffffffffffffffffffffffffffffffffffff1673ffffffffffffffffffffffffffffffffffffffff16815260200190815260200160002060006101000a81548160ff02191690831515021790555080806200019a9062000352565b915050620000ea565b505062000418565b600033905090565b6000620001ca620001c484620002e5565b620002b1565b90508083825260208201905082856020860282011115620001ea57600080fd5b60005b858110156200021e578162000203888262000228565b845260208401935060208301925050600181019050620001ed565b5050509392505050565b6000815190506200023981620003fe565b92915050565b600082601f8301126200025157600080fd5b815162000263848260208601620001b3565b91505092915050565b6000602082840312156200027f57600080fd5b600082015167ffffffffffffffff8111156200029a57600080fd5b620002a8848285016200023f565b91505092915050565b6000604051905081810181811067ffffffffffffffff82111715620002db57620002da620003cf565b5b8060405250919050565b600067ffffffffffffffff821115620003035762000302620003cf565b5b602082029050602081019050919050565b6000620003218262000328565b9050919050565b600073ffffffffffffffffffffffffffffffffffffffff82169050919050565b6000819050919050565b60006200035f8262000348565b91507fffffffffffffffffffffffffffffffffffffffffffffffffffffffffffffffff821415620003955762000394620003a0565b5b600182019050919050565b7f4e487b7100000000000000000000000000000000000000000000000000000000600052601160045260246000fd5b7f4e487b7100000000000000000000000000000000000000000000000000000000600052604160045260246000fd5b620004098162000314565b81146200041557600080fd5b50565b6119b280620004286000396000f3fe608060405234801561001057600080fd5b50600436106100a95760003560e01c80638175db48116100715780638175db48146101405780638da5cb5b1461015e578063bb032a661461017c578063bde3672d14610198578063d936547e146101b4578063f2fde38b146101e4576100a9565b806306fdde03146100ae57806320606b70146100cc57806322124fbd146100ea578063715018a6146101065780637ecebe0014610110575b600080fd5b6100b6610200565b6040516100c39190611601565b60405180910390f35b6100d4610239565b6040516100e191906114fb565b60405180910390f35b61010460048036038101906100ff9190610f6b565b61025d565b005b61010e610873565b005b61012a60048036038101906101259190610f42565b6109ad565b6040516101379190611723565b60405180910390f35b6101486109c5565b60405161015591906114fb565b60405180910390f35b6101666109e9565b6040516101739190611465565b60405180910390f35b61019660048036038101906101919190610f42565b610a12565b005b6101b260048036038101906101ad9190610f42565b610b76565b005b6101ce60048036038101906101c99190610f42565b610cd0565b6040516101db91906114e0565b60405180910390f35b6101fe60048036038101906101f99190610f42565b610cf0565b005b6040518060400160405280600d81526020017f52656c617965724549503731320000000000000000000000000000000000000081525081565b7f8cad95687ba82c2ce50e74f7b754645e5117c3a5bec8151c0726d5857980a86681565b600260008873ffffffffffffffffffffffffffffffffffffffff1673ffffffffffffffffffffffffffffffffffffffff16815260200190815260200160002060009054906101000a900460ff166102e9576040517f08c379a00000000000000000000000000000000000000000000000000000000081526004016102e090611663565b60405180910390fd5b6000807f8cad95687ba82c2ce50e74f7b754645e5117c3a5bec8151c0726d5857980a8666040518060400160405280600d81526020017f52656c617965724549503731320000000000000000000000000000000000000081525080519060200120610352610e99565b306040516020016103669493929190611577565b60405160208183030381529060405280519060200120905060007fe70136ab5e16013068d8c400342ffe2f41d2aa9da3113674b3af34b676e32de78b8a8a8d8b6040516020016103bb96959493929190611516565b604051602081830303815290604052805190602001209050600082826040516020016103e892919061142e565b6040516020818303038152906040528051906020012090506001818689896040516000815260200160405260405161042394939291906115bc565b6020604051602081039080840390855afa158015610445573d6000803e3d6000fd5b505050602060405103519350600073ffffffffffffffffffffffffffffffffffffffff168473ffffffffffffffffffffffffffffffffffffffff1614156104c1576040517f08c379a00000000000000000000000000000000000000000000000000000000081526004016104b890611703565b60405180910390fd5b600160008573ffffffffffffffffffffffffffffffffffffffff1673ffffffffffffffffffffffffffffffffffffffff168152602001908152602001600020600081548092919061051190611876565b919050558814610556576040517f08c379a000000000000000000000000000000000000000000000000000000000815260040161054d906116c3565b60405180910390fd5b50505060008890506000610573888a610ea690919063ffffffff16565b9050808273ffffffffffffffffffffffffffffffffffffffff166370a08231856040518263ffffffff1660e01b81526004016105af9190611465565b60206040518083038186803b1580156105c757600080fd5b505afa1580156105db573d6000803e3d6000fd5b505050506040513d601f19601f820116820180604052508101906105ff9190611046565b1015610640576040517f08c379a000000000000000000000000000000000000000000000000000000000815260040161063790611683565b60405180910390fd5b888273ffffffffffffffffffffffffffffffffffffffff1663dd62ed3e85306040518363ffffffff1660e01b815260040161067c929190611480565b60206040518083038186803b15801561069457600080fd5b505afa1580156106a8573d6000803e3d6000fd5b505050506040513d601f19601f820116820180604052508101906106cc9190611046565b101561070d576040517f08c379a000000000000000000000000000000000000000000000000000000000815260040161070490611623565b60405180910390fd5b8173ffffffffffffffffffffffffffffffffffffffff166323b872dd848d8c6040518463ffffffff1660e01b815260040161074a939291906114a9565b602060405180830381600087803b15801561076457600080fd5b505af1158015610778573d6000803e3d6000fd5b505050506040513d601f19601f8201168201806040525081019061079c919061101d565b508173ffffffffffffffffffffffffffffffffffffffff166323b872dd84338b6040518463ffffffff1660e01b81526004016107da939291906114a9565b602060405180830381600087803b1580156107f457600080fd5b505af1158015610808573d6000803e3d6000fd5b505050506040513d601f19601f8201168201806040525081019061082c919061101d565b507f7271f8b3d48d26ccc839c0f424fe9e12fe4e058108b58c096c078659c7fbadf6878460405161085e92919061173e565b60405180910390a15050505050505050505050565b61087b610ebc565b73ffffffffffffffffffffffffffffffffffffffff166108996109e9565b73ffffffffffffffffffffffffffffffffffffffff16146108ef576040517f08c379a00000000000000000000000000000000000000000000000000000000081526004016108e6906116a3565b60405180910390fd5b600073ffffffffffffffffffffffffffffffffffffffff1660008054906101000a900473ffffffffffffffffffffffffffffffffffffffff1673ffffffffffffffffffffffffffffffffffffffff167f8be0079c531659141344cd1fd0a4f28419497f9722a3daafe3b4186f6b6457e060405160405180910390a360008060006101000a81548173ffffffffffffffffffffffffffffffffffffffff021916908373ffffffffffffffffffffffffffffffffffffffff160217905550565b60016020528060005260406000206000915090505481565b7fe70136ab5e16013068d8c400342ffe2f41d2aa9da3113674b3af34b676e32de781565b60008060009054906101000a900473ffffffffffffffffffffffffffffffffffffffff16905090565b610a1a610ebc565b73ffffffffffffffffffffffffffffffffffffffff16610a386109e9565b73ffffffffffffffffffffffffffffffffffffffff1614610a8e576040517f08c379a0000000000000000000000000000000000000000000000000000000008152600401610a85906116a3565b60405180910390fd5b600260008273ffffffffffffffffffffffffffffffffffffffff1673ffffffffffffffffffffffffffffffffffffffff16815260200190815260200160002060009054906101000a900460ff1615610b1b576040517f08c379a0000000000000000000000000000000000000000000000000000000008152600401610b12906116e3565b60405180910390fd5b6001600260008373ffffffffffffffffffffffffffffffffffffffff1673ffffffffffffffffffffffffffffffffffffffff16815260200190815260200160002060006101000a81548160ff02191690831515021790555050565b610b7e610ebc565b73ffffffffffffffffffffffffffffffffffffffff16610b9c6109e9565b73ffffffffffffffffffffffffffffffffffffffff1614610bf2576040517f08c379a0000000000000000000000000000000000000000000000000000000008152600401610be9906116a3565b60405180910390fd5b600260008273ffffffffffffffffffffffffffffffffffffffff1673ffffffffffffffffffffffffffffffffffffffff16815260200190815260200160002060009054906101000a900460ff16610c7e576040517f08c379a0000000000000000000000000000000000000000000000000000000008152600401610c7590611663565b60405180910390fd5b600260008273ffffffffffffffffffffffffffffffffffffffff1673ffffffffffffffffffffffffffffffffffffffff16815260200190815260200160002060006101000a81549060ff021916905550565b60026020528060005260406000206000915054906101000a900460ff1681565b610cf8610ebc565b73ffffffffffffffffffffffffffffffffffffffff16610d166109e9565b73ffffffffffffffffffffffffffffffffffffffff1614610d6c576040517f08c379a0000000000000000000000000000000000000000000000000000000008152600401610d63906116a3565b60405180910390fd5b600073ffffffffffffffffffffffffffffffffffffffff168173ffffffffffffffffffffffffffffffffffffffff161415610ddc576040517f08c379a0000000000000000000000000000000000000000000000000000000008152600401610dd390611643565b60405180910390fd5b8073ffffffffffffffffffffffffffffffffffffffff1660008054906101000a900473ffffffffffffffffffffffffffffffffffffffff1673ffffffffffffffffffffffffffffffffffffffff167f8be0079c531659141344cd1fd0a4f28419497f9722a3daafe3b4186f6b6457e060405160405180910390a3806000806101000a81548173ffffffffffffffffffffffffffffffffffffffff021916908373ffffffffffffffffffffffffffffffffffffffff16021790555050565b6000804690508091505090565b60008183610eb4919061178e565b905092915050565b600033905090565b600081359050610ed381611909565b92915050565b600081519050610ee881611920565b92915050565b600081359050610efd81611937565b92915050565b600081359050610f128161194e565b92915050565b600081519050610f278161194e565b92915050565b600081359050610f3c81611965565b92915050565b600060208284031215610f5457600080fd5b6000610f6284828501610ec4565b91505092915050565b600080600080600080600080610100898b031215610f8857600080fd5b6000610f968b828c01610ec4565b9850506020610fa78b828c01610ec4565b9750506040610fb88b828c01610f03565b9650506060610fc98b828c01610f03565b9550506080610fda8b828c01610f03565b94505060a0610feb8b828c01610eee565b93505060c0610ffc8b828c01610eee565b92505060e061100d8b828c01610f2d565b9150509295985092959890939650565b60006020828403121561102f57600080fd5b600061103d84828501610ed9565b91505092915050565b60006020828403121561105857600080fd5b600061106684828501610f18565b91505092915050565b611078816117e4565b82525050565b611087816117f6565b82525050565b61109681611802565b82525050565b6110ad6110a882611802565b6118bf565b82525050565b60006110be82611767565b6110c88185611772565b93506110d8818560208601611843565b6110e1816118f8565b840191505092915050565b60006110f9602383611772565b91507f52656c617965724549503731323a20616c6c6f77616e636520697320746f6f2060008301527f6c6f7700000000000000000000000000000000000000000000000000000000006020830152604082019050919050565b600061115f602683611772565b91507f4f776e61626c653a206e6577206f776e657220697320746865207a65726f206160008301527f64647265737300000000000000000000000000000000000000000000000000006020830152604082019050919050565b60006111c5600283611783565b91507f19010000000000000000000000000000000000000000000000000000000000006000830152600282019050919050565b6000611205602783611772565b91507f52656c617965724549503731323a206572633230206973206e6f74207768697460008301527f656c6973746564000000000000000000000000000000000000000000000000006020830152604082019050919050565b600061126b602883611772565b91507f52656c617965724549503731323a207369676e65722062616c616e636520697360008301527f20746f6f206c6f770000000000000000000000000000000000000000000000006020830152604082019050919050565b60006112d1602083611772565b91507f4f776e61626c653a2063616c6c6572206973206e6f7420746865206f776e65726000830152602082019050919050565b6000611311602883611772565b91507f52656c617965724549503731323a2070726f626c656d2077697468207369676e60008301527f6572206e6f6e63650000000000000000000000000000000000000000000000006020830152604082019050919050565b6000611377602b83611772565b91507f52656c617965724549503731323a20657263323020697320616c72656164792060008301527f77686974656c69737465640000000000000000000000000000000000000000006020830152604082019050919050565b60006113dd601c83611772565b91507f52656c617965724549503731323a20626164207369676e6174757265000000006000830152602082019050919050565b6114198161182c565b82525050565b61142881611836565b82525050565b6000611439826111b8565b9150611445828561109c565b602082019150611455828461109c565b6020820191508190509392505050565b600060208201905061147a600083018461106f565b92915050565b6000604082019050611495600083018561106f565b6114a2602083018461106f565b9392505050565b60006060820190506114be600083018661106f565b6114cb602083018561106f565b6114d86040830184611410565b949350505050565b60006020820190506114f5600083018461107e565b92915050565b6000602082019050611510600083018461108d565b92915050565b600060c08201905061152b600083018961108d565b611538602083018861106f565b6115456040830187611410565b6115526060830186611410565b61155f608083018561106f565b61156c60a0830184611410565b979650505050505050565b600060808201905061158c600083018761108d565b611599602083018661108d565b6115a66040830185611410565b6115b3606083018461106f565b95945050505050565b60006080820190506115d1600083018761108d565b6115de602083018661141f565b6115eb604083018561108d565b6115f8606083018461108d565b95945050505050565b6000602082019050818103600083015261161b81846110b3565b905092915050565b6000602082019050818103600083015261163c816110ec565b9050919050565b6000602082019050818103600083015261165c81611152565b9050919050565b6000602082019050818103600083015261167c816111f8565b9050919050565b6000602082019050818103600083015261169c8161125e565b9050919050565b600060208201905081810360008301526116bc816112c4565b9050919050565b600060208201905081810360008301526116dc81611304565b9050919050565b600060208201905081810360008301526116fc8161136a565b9050919050565b6000602082019050818103600083015261171c816113d0565b9050919050565b60006020820190506117386000830184611410565b92915050565b60006040820190506117536000830185611410565b611760602083018461106f565b9392505050565b600081519050919050565b600082825260208201905092915050565b600081905092915050565b60006117998261182c565b91506117a48361182c565b9250827fffffffffffffffffffffffffffffffffffffffffffffffffffffffffffffffff038211156117d9576117d86118c9565b5b828201905092915050565b60006117ef8261180c565b9050919050565b60008115159050919050565b6000819050919050565b600073ffffffffffffffffffffffffffffffffffffffff82169050919050565b6000819050919050565b600060ff82169050919050565b60005b83811015611861578082015181840152602081019050611846565b83811115611870576000848401525b50505050565b60006118818261182c565b91507fffffffffffffffffffffffffffffffffffffffffffffffffffffffffffffffff8214156118b4576118b36118c9565b5b600182019050919050565b6000819050919050565b7f4e487b7100000000000000000000000000000000000000000000000000000000600052601160045260246000fd5b6000601f19601f8301169050919050565b611912816117e4565b811461191d57600080fd5b50565b611929816117f6565b811461193457600080fd5b50565b61194081611802565b811461194b57600080fd5b50565b6119578161182c565b811461196257600080fd5b50565b61196e81611836565b811461197957600080fd5b5056fea26469706673582212204a1cdf2e653be9806cee2cfba86efd6889aef0de2fbba43957cf35aa0aec879064736f6c63430008000033",
  "immutableReferences": {},
  "source": "pragma solidity 0.8.0;\n\nimport \"@openzeppelin/contracts/token/ERC20/IERC20.sol\";\nimport \"@openzeppelin/contracts/utils/math/SafeMath.sol\";\nimport \"@openzeppelin/contracts/access/Ownable.sol\";\n\n\ncontract RelayerEIP712 is Ownable {\n    using SafeMath for uint256;\n\n    string public constant name = \"RelayerEIP712\";\n\n\n    event Executed(uint256 nonce, address signer);\n\n\n    bytes32 public constant DOMAIN_TYPEHASH = keccak256(\"EIP712Domain(string name,uint256 chainId,address verifyingContract)\");\n    bytes32 public constant TRANSFER_FROM_TYPEHASH = keccak256(\"TransferFrom(address receiver,uint256 amount,uint256 fee,address erc20,uint256 nonce)\");\n\n    mapping(address => uint) public nonces;\n    mapping(address => bool) public whitelisted;\n\n    constructor(address[] memory tokens){\n        for (uint i = 0; i < tokens.length; i++) {\n            whitelisted[tokens[i]] = true;\n        }\n    }\n\n    function transferFromBySig(address receiver, address erc20, uint256 amount, uint256 fee, uint256 nonce, bytes32 r, bytes32 s, uint8 v) public {\n        require(whitelisted[erc20], \"RelayerEIP712: erc20 is not whitelisted\");\n\n        address signer = address(0);\n        {\n            bytes32 domainSeparator = keccak256(abi.encode(DOMAIN_TYPEHASH, keccak256(bytes(name)), getChainId(), address(this)));\n            bytes32 structHash = keccak256(abi.encode(TRANSFER_FROM_TYPEHASH, receiver, amount, fee, erc20, nonce));\n            bytes32 digest = keccak256(abi.encodePacked(\"\\x19\\x01\", domainSeparator, structHash));\n\n            signer = ecrecover(digest, v, r, s);\n            require(signer != address(0), \"RelayerEIP712: bad signature\");\n            require(nonce == nonces[signer]++, \"RelayerEIP712: problem with signer nonce\");\n        }\n\n        IERC20 ierc20 = IERC20(erc20);\n\n        uint256 sum = amount.add(fee);\n        require(ierc20.balanceOf(signer) >= sum, \"RelayerEIP712: signer balance is too low\");\n        require(ierc20.allowance(signer, address(this)) >= amount, \"RelayerEIP712: allowance is too low\");\n\n        ierc20.transferFrom(signer, receiver, amount);\n        ierc20.transferFrom(signer, msg.sender, fee);\n\n        emit Executed(nonce, signer);\n\n    }\n\n    function list(address erc20) external onlyOwner {\n        require(!whitelisted[erc20], \"RelayerEIP712: erc20 is already whitelisted\");\n        whitelisted[erc20] = true;\n    }\n\n    function unlist(address erc20) external onlyOwner {\n        require(whitelisted[erc20], \"RelayerEIP712: erc20 is not whitelisted\");\n        delete whitelisted[erc20];\n    }\n\n    function getChainId() internal view returns (uint) {\n        uint256 chainId;\n        assembly {chainId := chainid()}\n        return chainId;\n    }\n}",
  "sourcePath": "/Users/macbook/go/src/github.com/FixIT-hackathon/meta-transfer-from-contract/contracts/RelayerEIP712.sol",
  "compiler": {
    "name": "solc",
    "version": "0.8.0+commit.c7dfd78e.Emscripten.clang"
  },
  "schemaVersion": "3.2.2",
  "updatedAt": "2021-03-28T15:26:50.994Z",
  "devdoc": {
    "kind": "dev",
    "methods": {
      "owner()": {
        "details": "Returns the address of the current owner."
      },
      "renounceOwnership()": {
        "details": "Leaves the contract without owner. It will not be possible to call `onlyOwner` functions anymore. Can only be called by the current owner. NOTE: Renouncing ownership will leave the contract without an owner, thereby removing any functionality that is only available to the owner."
      },
      "transferOwnership(address)": {
        "details": "Transfers ownership of the contract to a new account (`newOwner`). Can only be called by the current owner."
      }
    },
    "version": 1
  },
  "userdoc": {
    "kind": "user",
    "methods": {},
    "version": 1
  }
}